:0F00000090009474FF75800079557590FFC29041
:0E000F002094047800118E2095047801118E43
:10001D002096047802118E2097047803118ED290C9
:10002D00C2912094047804118E2095047805118EC8
:10003D002096047806118E2097047807118ED291A0
:10004D00C2922094047808118E2095047809118E9F
:10005D00209604780A118E209704780B118ED29277
:10006D00C293209404780C118E209504780D118E76
:0E007D00209604780E118E209783780F118E36
:10008B0002000AE90318B800FB0100F2EE66B6BEE7
:09009B003EE0FEF69C9EFC8E7A0C
:00000001FF
